:100000007AC100000C948B550C94BE550C94F1559C
:100010000C9424560C9457560C948A560C94BD5646
:100020000C94F0562DC50000A6C6000048C700007D
:1000300093C1000091C100008FC100008DC100007C
:100040008BC1000089C1000087C1000085C100008C
:1000500083C1000081C100007FC100000C942357C0
:100060007BC100000C9404610C94346175C10000E4
:1000700073C1000071C100006FC100006DC10000BC
:100080006BC1000069C1000067C1000065C10000CC
:100090000C94AB610C94DB615FC100000C94830E87
:1000A0005BC1000059C1000057C1000055C10000EC
:1000B00053C1000051C100004FC100004DC10000FC
:1000C0004BC1000049C1000047C100000C945262BE
:1000D0000C94826241C100000C94F9620C94296373
:1000E0003BC10000001D3A2774694E53E8F5D2CF9A
:1000F0009C81A6BBCDD0F7EAB9A4839E25381F0208
:10010000514C6B76879ABDA0F3EEC9D46F725548F7
:100110001B06213C4A57706D3E230419A2BF9885E7
:10012000D6CBECF1130E2934677A5D40FBE6C1DCD7
:100130008F92B5A8DEC3E4F9AAB7908D362B0C11C7
:10014000425F78659489AEB3E0FDDAC77C61465BB7
:100150000815322F5944637E2D30170AB1AC8B96A7
:10016000C5D8FFE2263B1C01524F6875CED3F4E997
:10017000BAA7809DEBF6D1CC9F82A5B8031E392487
:10018000776A4D50A1BC9B86D5C8EFF24954736E77
:100190003D20071A6C71564B1805223F8499BEA367
:1001A000F0EDCAD735280F12415C7B66DDC0E7FA57
:1001B000A9B4938EF8E5C2DF8C91B6AB100D2A3747
:1001C00064795E43B2AF8895C6DBFCE15A47607D37
:1001D0002E3314097F6245580B16312C978AADB027
:1001E000E3FED9C400002100240027002A002D00CE
:1001F0003000330001010000040107010A01000082
:100200002200250028002B002E00310034000201BE
:100210000000050108010B01050505050705080893
:100220000808020202020A0A080804040404010180
:100230000101010101010303030303030303040795
:1002400007070C0C0C0C0C0C0C0C0202020206062C
:100250000606060606060B0B0B0B0B0B0B0B01021F
:1002600010202008081020401020408002010201C8
:100270000804020101020408102040808040201080
:1002800008040201800402018040201008040201D9
:100290000804020101020408102040800102040841
:1002A0001020408000000A0B02090C0D0E08070305
:1002B0000401000000000000000000000000000039
:1002C000000000000000000000000000000000002E
:1002D00012111000000000000000000000000000EB
:1002E00000000000000000000000790C53149F6122
:1002F0004662ED62966311241FBECFEFD1E2DEBFEE
:10030000CDBF00E00CBF14E0A0E0B2E0EAEFFAECF1
:1003100000E00BBF02C007900D92A03BB107D9F7D8
:100320002AE0A0EBB4E001C01D92AB3AB207E1F7BE
:1003300011E0CBE7D1E000E006C021970109802F52
:10034000FE010E941764C537D10780E00807A9F7AE
:100350000E9445510C947B6553CECF93DF931F923F
:100360001F92CDB7DEB79A83898389819A81092E3E
:10037000000CAA0BBB0B0297A109B10984319105AE
:10038000A105B10508F033C0FC018827E553FE4FF5
:100390008F4F0C941764DF01E201F701F701F101BF
:1003A000F401F701F701F701F701F701F701F70190
:1003B000F701F701F701EE01EB01E801E50180E04B
:1003C00090E017C081E090E014C082E090E011C09E
:1003D00083E090E00EC084E090E00BC085E090E008
:1003E00008C086E090E005C087E090E002C08FEF93
:1003F0009FEF0F900F90DF91CF910895CF93DF93F0
:1004000000D000D0CDB7DEB78CE290E0FC01808157
:10041000882F90E09A83898389819A8180729927B5
:1004200021E0892B09F420E0822F90E09C838B83CC
:1004300089819A818071992721E0892B09F420E034
:10044000822F90E09E838D838D819E81019761F53F
:100450008B819C81892BA1F48091B4049091B50487
:10046000A091B604B091B7040196A11DB11D80936F
:10047000B4049093B504A093B604B093B7043FC0FE
:100480008091B4049091B504A091B604B091B704E2
:100490000197A109B1098093B4049093B504A09386
:1004A000B604B093B7042BC08B819C810197A1F453
:1004B0008091B4049091B504A091B604B091B704B2
:1004C0000196A11DB11D8093B4049093B504A0932F
:1004D000B604B093B70413C08091B4049091B504EE
:1004E000A091B604B091B7040197A109B109809316
:1004F000B4049093B504A093B604B093B70400007D
:1005000026960FB6F894DEBF0FBECDBFDF91CF9118
:100510000895CF93DF9300D000D0CDB7DEB78CE243
:1005200090E0FC018081882F90E09A838983898103
:100530009A818071992721E0892B09F420E0822F8C
:1005400090E09C838B8389819A818072992721E036
:10055000892B09F420E0822F90E09E838D838D818A
:100560009E81019761F58B819C810197A1F4809117
:10057000B4049091B504A091B604B091B70401966B
:10058000A11DB11D8093B4049093B504A093B6044B
:10059000B093B7043FC08091B4049091B504A0918A
:1005A000B604B091B7040197A109B1098093B404CE
:1005B0009093B504A093B604B093B7042BC08B817D
:1005C0009C81892BA1F48091B4049091B504A091F1
:1005D000B604B091B7040196A11DB11D8093B40477
:1005E0009093B504A093B604B093B70413C0809160
:1005F000B4049091B504A091B604B091B7040197EA
:10060000A109B1098093B4049093B504A093B604F2
:10061000B093B704000026960FB6F894DEBF0FBE65
:10062000CDBFDF91CF910895CF93DF9300D000D05D
:10063000CDB7DEB789E290E0FC018081882F90E0A1
:100640009A83898389819A818870992721E0892BEF
:1006500009F420E0822F90E09C838B8389819A812A
:100660008470992721E0892B09F420E0822F90E003
:100670009E838D838D819E81019761F58B819C8105
:10068000892BA1F48091C2049091C304A091C40469
:10069000B091C5040196A11DB11D8093C204909331
:1006A000C304A093C404B093C5043FC08091C204A6
:1006B0009091C304A091C404B091C5040197A1090D
:1006C000B1098093C2049093C304A093C404B0936F
:1006D000C5042BC08B819C810197A1F48091C20439
:1006E0009091C304A091C404B091C5040196A11DCA
:1006F000B11D8093C2049093C304A093C404B0932B
:10070000C50413C08091C2049091C304A091C40495
:10071000B091C5040197A109B1098093C2049093D7
:10072000C304A093C404B093C504000026960FB67A
:10073000F894DEBF0FBECDBFDF91CF910895CF9368
:10074000DF9300D000D0CDB7DEB789E290E0FC01A6
:100750008081882F90E09A83898389819A8184702F
:10076000992721E0892B09F420E0822F90E09C83D7
:100770008B8389819A818870992721E0892B09F4DC
:1007800020E0822F90E09E838D838D819E81019752
:1007900061F58B819C810197A1F48091C2049091B5
:1007A000C304A091C404B091C5040196A11DB11D5C
:1007B0008093C2049093C304A093C404B093C5046F
:1007C0003FC08091C2049091C304A091C404B09131
:1007D000C5040197A109B1098093C2049093C30491
:1007E000A093C404B093C5042BC08B819C81892B3A
:1007F000A1F48091C2049091C304A091C404B0916B
:10080000C5040196A11DB11D8093C2049093C30439
:10081000A093C404B093C50413C08091C204909106
:10082000C304A091C404B091C5040197A109B10902
:100830008093C2049093C304A093C404B093C504EE
:10084000000026960FB6F894DEBF0FBECDBFDF9135
:10085000CF910895CF93DF9300D000D0CDB7DEB70E
:100860008CE290E0FC018081882F90E09A8389835C
:1008700089819A81880F892F881F990B8170992708
:100880009C838B8389819A81082E892F000C881F75
:10089000990B000C881F991F817099279E838D8367
:1008A0008D819E81019761F58B819C81892BA1F4BB
:1008B0008091D0049091D104A091D204B091D3043E
:1008C0000196A11DB11D8093D0049093D104A093F3
:1008D000D204B093D3043FC08091D0049091D1044E
:1008E000A091D204B091D3040197A109B1098093DA
:1008F000D0049093D104A093D204B093D3042BC01E
:100900008B819C810197A1F48091D0049091D104B6
:10091000A091D204B091D3040196A11DB11D809382
:10092000D0049093D104A093D204B093D30413C005
:100930008091D0049091D104A091D204B091D304BD
:100940000197A109B1098093D0049093D104A09399
:10095000D204B093D304000026960FB6F894DEBFFD
:100960000FBECDBFDF91CF910895CF93DF9300D01D
:1009700000D0CDB7DEB78CE290E0FC018081882FFB
:1009800090E09A83898389819A81082E892F000CAF
:10099000881F990B000C881F991F817099279C83D1
:1009A0008B8389819A81880F892F881F990B817089
:1009B00099279E838D838D819E81019761F58B811F
:1009C0009C810197A1F48091D0049091D104A091D1
:1009D000D204B091D3040196A11DB11D8093D0041F
:1009E0009093D104A093D204B093D3043FC08091DC
:1009F000D0049091D104A091D204B091D304019776
:100A0000A109B1098093D0049093D104A093D2049A
:100A1000B093D3042BC08B819C81892BA1F480914E
:100A2000D0049091D104A091D204B091D304019646
:100A3000A11DB11D8093D0049093D104A093D20442
:100A4000B093D30413C08091D0049091D104A091AD
:100A5000D204B091D3040197A109B1098093D004C5
:100A60009093D104A093D204B093D30400002696AF
:100A70000FB6F894DEBF0FBECDBFDF91CF910895C2
:100A80001F920F920FB60F9211240BB60F922F9355
:100A90003F934F938F939F93AF93BF93EF93FF93A6
:100AA000CF93DF9300D000D0CDB7DEB783E290E0E4
:100AB000FC018081882F90E09A83898389819A81C3
:100AC0008072992721E0892B09F420E0822F90E0A1
:100AD0009C838B8389819A818074992721E0892B5B
:100AE00009F420E0822F90E09E838D838091F404AE
:100AF0009091F50441E02B813C812817390709F0DA
:100B000040E0442309F462C08D819E819093F304F8
:100B10008093F2048D819E81019761F58B819C8188
:100B2000892BA1F48091EC049091ED04A091EE0446
:100B3000B091EF040196A11DB11D8093EC04909338
:100B4000ED04A093EE04B093EF04A1C08091EC04F7
:100B50009091ED04A091EE04B091EF040197A109EA
:100B6000B1098093EC049093ED04A093EE04B0934C
:100B7000EF048DC08B819C810197A1F48091EC04DE
:100B80009091ED04A091EE04B091EF040196A11DA7
:100B9000B11D8093EC049093ED04A093EE04B09308
:100BA000EF0475C08091EC049091ED04A091EE04E7
:100BB000B091EF040197A109B1098093EC049093DF
:100BC000ED04A093EE04B093EF0461C08B819C818F
:100BD0009093F5048093F4048B819C81019761F5D7
:100BE0008D819E810197A1F48091EC049091ED0498
:100BF000A091EE04B091EF040196A11DB11D809368
:100C0000EC049093ED04A093EE04B093EF043FC086
:100C10008091EC049091ED04A091EE04B091EF046A
:100C20000197A109B1098093EC049093ED04A0937E
:100C3000EE04B093EF042BC08D819E81892BA1F42B
:100C40008091EC049091ED04A091EE04B091EF043A
:100C50000196A11DB11D8093EC049093ED04A09327
:100C6000EE04B093EF0413C08091EC049091ED0476
:100C7000A091EE04B091EF040197A109B10980930E
:100C8000EC049093ED04A093EE04B093EF048D81F7
:100C90009E81019761F58B819C81892BA1F48091C4
:100CA000EC049091ED04A091EE04B091EF04019654
:100CB000A11DB11D8093EC049093ED04A093EE046C
:100CC000B093EF043FC08091EC049091ED04A091AB
:100CD000EE04B091EF040197A109B1098093EC04EF
:100CE0009093ED04A093EE04B093EF042BC08B819E
:100CF0009C810197A1F48091EC049091ED04A09166
:100D0000EE04B091EF040196A11DB11D8093EC0497
:100D10009093ED04A093EE04B093EF0413C0809180
:100D2000EC049091ED04A091EE04B091EF040197D2
:100D3000A109B1098093EC049093ED04A093EE0413
:100D4000B093EF04000026960FB6F894DEBF0FBEF6
:100D5000CDBFDF91CF91FF91EF91BF91AF919F9167
:100D60008F914F913F912F910F900BBE0F900FBE1F
:100D70000F901F9018951F920F920FB60F9211248B
:100D80000BB60F922F938F939F93AF93BF93EF93D5
:100D9000FF93CF93DF9300D01F92CDB7DEB786E0ED
:100DA00091E0FC018081882F90E08170992721E0FB
:100DB000892B09F420E0822F90E09A83898383E0D5
:100DC00091E0FC018081882F90E08170992721E0DB
:100DD000892B09F420E0822F90E09C838B838B8108
:100DE0009C81019761F589819A81892BA1F4809179
:100DF000DE049091DF04A091E004B091E10401963B
:100E0000A11DB11D8093DE049093DF04A093E00444
:100E1000B093E1043FC08091DE049091DF04A09183
:100E2000E004B091E1040197A109B1098093DE04C7
:100E30009093DF04A093E004B093E1042BC0898178
:100E40009A810197A1F48091DE049091DF04A09132
:100E5000E004B091E1040196A11DB11D8093DE0470
:100E60009093DF04A093E004B093E10413C0809159
:100E7000DE049091DF04A091E004B091E1040197B9
:100E8000A109B1098093DE049093DF04A093E004EC
:100E9000B093E10400000F900F900F900F90DF913E
:100EA000CF91FF91EF91BF91AF919F918F912F9132
:100EB0000F900BBE0F900FBE0F901F9018951F92B2
:100EC0000F920FB60F9211240BB60F922F938F93A0
:100ED0009F93AF93BF93EF93FF93CF93DF9300D094
:100EE0001F92CDB7DEB783E091E0FC018081882FAF
:100EF00090E08170992721E0892B09F420E0822F6E
:100F000090E09A83898386E091E0FC018081882FBC
:100F100090E08170992721E0892B09F420E0822F4D
:100F200090E09C838B838B819C81019761F5898103
:100F30009A810197A1F48091DE049091DF04A09141
:100F4000E004B091E1040196A11DB11D8093DE047F
:100F50009093DF04A093E004B093E1043FC080913C
:100F6000DE049091DF04A091E004B091E1040197C8
:100F7000A109B1098093DE049093DF04A093E004FB
:100F8000B093E1042BC089819A81892BA1F48091CF
:100F9000DE049091DF04A091E004B091E104019699
:100FA000A11DB11D8093DE049093DF04A093E004A3
:100FB000B093E10413C08091DE049091DF04A0910E
:100FC000E004B091E1040197A109B1098093DE0426
:100FD0009093DF04A093E004B093E10400000F902D
:100FE0000F900F900F90DF91CF91FF91EF91BF91F4
:100FF000AF919F918F912F910F900BBE0F900FBECD
:101000000F901F901895CF93DF9300D000D0CDB7ED
:10101000DEB79A8389837C836B835E834D832981CA
:101020003A81C901880F991F880F991F880F991F4E
:10103000821B930B880F991F80559B4F2B813C81FE
:10104000FC013183208329813A81C901880F991FCE
:10105000880F991F880F991F821B930B880F991F68
:101060008E549B4F2D813E81FC0131832083298149
:101070003A81C901880F991F880F991F880F991FFE
:10108000821B930B880F991F80559B4FFC01808119
:10109000918160E00E94DC5A29813A81C901880F60
:1010A000991F880F991F880F991F821B930B880F18
:1010B000991F8E549B4FFC018081918160E00E94BA
:1010C000DC5A29813A81C901880F991F880F991F1D
:1010D000880F991F821B930B880F991F80559B4F78
:1010E000FC018081918161E00E947B5C29813A81D1
:1010F000C901880F991F880F991F880F991F821B9C
:10110000930B880F991F8E549B4FFC018081918116
:1011100061E00E947B5C89819A818230910509F4AB
:101120003EC0833091052CF4009759F0019701F1EE
:101130008EC08330910509F449C0049709F46BC04F
:1011400086C08091B0049091B10407D941E050E08D
:101150006EEF71E00E946C548091B2049091B304E0
:10116000FCD841E050E069E872E00E946C546FC026
:101170008091BE049091BF04F0D841E050E064E15A
:1011800073E00E946C548091C0049091C104E5D832
:1011900041E050E06FE973E00E946C5458C08091C8
:1011A000CC049091CD04D9D841E050E06AE274E0DB
:1011B0000E946C548091CE049091CF04CED841E02F
:1011C00050E065EB74E00E946C5441C088E690E00A
:1011D000FC01208188E690E02460FC01208388E601
:1011E00090E0FC01208188E690E02260FC012083F1
:1011F0008DE690E0FC0120818DE690E02160FC010D
:1012000020838CE690E0FC0120818CE690E0226057
:10121000FC0120831CC088E690E0FC01208188E668
:1012200090E02160FC0120838BE690E0FC012081AE
:101230008BE690E02062FC0120838BE690E0FC01CD
:1012400020818BE690E02064FC01208300000000F8
:1012500026960FB6F894DEBF0FBECDBFDF91CF91BB
:101260000895CF93DF9300D01F92CDB7DEB7698387
:101270007A838B839C8329813A81C901880F991FC6
:10128000880F991F880F991F821B930B880F991F36
:101290008C549B4FFC0180819181A281B381BC0160
:1012A000CD010F900F900F900F90DF91CF91089587
:1012B000CF93DF9300D01F92CDB7DEB79A83898397
:1012C0007C836B8389819A812B813C81FC013383F0
:1012D000228300000F900F900F900F90DF91CF911D
:1012E0000895CF93DF931F921F92CDB7DEB79A83F5
:1012F000898328EA34E089819A81FC013183208343
:1013000089819A81FC011382128200000F900F9054
:10131000DF91CF910895CF93DF931F921F92CDB7A6
:10132000DEB79A83898380E090E00F900F90DF9181
:10133000CF910895CF93DF931F921F92CDB7DEB761
:101340009A83898300000F900F90DF91CF910895C9
:10135000CF93DF931F921F92CDB7DEB79A83898315
:1013600089819A81BEDF21E834E089819A81FC017C
:101370003183208329813A8188EE93E0A0E0B0E0B8
:10138000F90184839583A683B78300000F900F90A3
:10139000DF91CF910895CF93DF931F921F92CDB726
:1013A000DEB79A83898389819A81D2DF2FE634E080
:1013B00089819A81FC013183208300000F900F9076
:1013C000DF91CF910895CF93DF931F921F92CDB7F6
:1013D000DEB79A8389831092160510921705109232
:1013E000390510923A0591D283E49CE035D486EF1A
:1013F0009BE01ED400000F900F90DF91CF910895D5
:10140000CF92EF920F931F93CF93DF9300D000D032
:1014100000D01F921F92CDB7DEB79B838A836C8367
:101420004D830E831F8328873987EA86CB868A857A
:101430008823D9F18A819B816C8193D08A858430FD
:1014400010F083E08A878A859FEF980F9A8791E052
:10145000882309F490E0992321F18A819B81FC0182
:1014600080819181FC01208131818A85882F90E0E3
:10147000AC01440F551F440F551F440F551F8E815B
:101480009F81A885B98504C0B695A795979587953E
:101490004A95D2F7482F8A819B81642FF9011995CB
:1014A000D2CF8A819B8160E075D08D81813210F02E
:1014B00080E28D832B854D8166EF74E08C8158D25C
:1014C00089831092160589818093170589812B964F
:1014D0000FB6F894DEBF0FBECDBFDF91CF911F9145
:1014E0000F91EF90CF900895CF92EF920F931F93AB
:1014F000CF93DF9300D01F921F92CDB7DEB79A83B0
:1015000089836B834C832D8389819A81CD80E12CE3
:1015100000E010E098014C816B8172DF0F900F901A
:101520000F900F900F90DF91CF911F910F91EF903F
:10153000CF900895CF93DF9300D01F92CDB7DEB741
:101540009A8389836B834C8389819A8121E04C81C2
:101550006B81CADF0F900F900F900F90DF91CF91AA
:101560000895CF93DF9300D0CDB7DEB79A838983F8
:101570006B8381E080933B058B81809318051092EB
:10158000390510923A0500000F900F900F90DF91EF
:10159000CF9108950F93CF93DF9300D01F92CDB7D3
:1015A000DEB79B838A836C8390913A0580911805FE
:1015B0000C8121E0492F69E175E05ED289831092A8
:1015C000390510923A0510923B0589810F900F90D2
:1015D0000F900F90DF91CF910F910895CF93DF93EC
:1015E0001F921F92CDB7DEB79A83898389819A8132
:1015F00061E0D0DF0F900F90DF91CF910895CF93EE
:10160000DF9300D0CDB7DEB79A8389836B83809157
:101610003B058823F9F080913A05803240F08981BA
:101620009A8161E070E044DE80E090E019C0809132
:101630003905882F90E02B81875E9A4FFC0120832B
:10164000809139058F5F80933905809139058093AA
:101650003A0504C0CE01039661E0A1D281E090E09A
:101660000F900F900F90DF91CF910895CF93DF935C
:1016700000D000D01F921F92CDB7DEB79C838B8322
:101680007E836D8358874F8380913B05882321F1AA
:101690001A82198229813A818F8198852817390702
:1016A00000F58B819C81FC0180819181FC0120816E
:1016B00031814D815E8189819A81840F951FFC0162
:1016C00040818B819C81642FF901199589819A81D0
:1016D00001969A838983DECF2F818D819E81622F2F
:1016E0005ED28F81988528960FB6F894DEBF0FBE24
:1016F000CDBFDF91CF910895CF93DF931F921F92BB
:10170000CDB7DEB79A83898380911705282F30E003
:1017100080911605882F90E0A901481B590BCA013A
:101720000F900F90DF91CF910895CF93DF9300D06A
:101730001F92CDB7DEB79C838B838FEF9FEF9A8389
:1017400089839091160580911705981788F48091E8
:101750001605882F90E08A509B4FFC018081882FCE
:1017600090E09A838983809116058F5F8093160598
:1017700089819A810F900F900F900F90DF91CF91F8
:101780000895CF93DF9300D01F92CDB7DEB79C832F
:101790008B838FEF9FEF9A838983909116058091B9
:1017A0001705981760F480911605882F90E08A50ED
:1017B0009B4FFC018081882F90E09A8389838981E7
:1017C0009A810F900F900F900F90DF91CF91089515
:1017D000CF93DF931F921F92CDB7DEB79A83898391
:1017E00000000F900F90DF91CF910895CF93DF937A
:1017F00000D01F921F92CDB7DEB79B838A837D8373
:101800006C8380913E0590913F05892B89F19091E1
:10181000160580911705981768F119828981882F1C
:1018200090E02C813D8182179307A4F48981882F51
:1018300090E02A813B81280F391F8981882F90E011
:10184000F90120818A509B4FFC01208389818F5FA1
:101850008983E4CF109216058C818093170520911F
:101860003E0530913F058C819D81F901199503C09A
:10187000000001C000000F900F900F900F900F908C
:10188000DF91CF910895CF93DF93CDB7DEB78091ED
:101890003C0590913D05892B59F010923905109225
:1018A0003A0580913C0590913D05FC01199501C0D8
:1018B0000000DF91CF910895CF93DF9300D01F9266
:1018C000CDB7DEB79A8389837C836B8389819A81C4
:1018D000019739F48B819C81019619F480E495E09D
:1018E0005ADD00000F900F900F900F90DF91CF9175
:1018F0000895CF93DF93CDB7DEB76FEF7FEF81E031
:1019000090E0DADFDF91CF910895CF93DF93CDB7E9
:10191000DEB710924C0581E080934E0510924F0582
:1019200084E161E00E947B5C85E161E00E947B5C78
:1019300089EB90E0FC01208189EB90E02E7FFC0197
:10194000208389EB90E0FC01208189EB90E02D7FE2
:10195000FC01208388EB90E028E4FC0120838CEBE1
:1019600090E025E4FC0120830000DF91CF910895F1
:10197000CF93DF9300D000D0CDB7DEB78A837C83CE
:101980006B834D832E838D81813218F080E06BC094
:10199000000080914C058823D9F781E080934C05A5
:1019A0008E8180934E058FEF8093B9051092740558
:1019B0008D8181508093750581E080934D058A81EA
:1019C000882F90E0880F991F982F80914D05892BC3
:1019D00080934D0580914F058130C1F410924F05E1
:1019E0008BEB90E020914D05FC0120838CEB90E087
:1019F000FC018081882F90E088709927892B81F7DE
:101A00008CEB90E025ECFC01208307C08CEB90E090
:101A100025EEFC01208301C0000080914C0581303F
:101A2000D9F3809174059D81891718F4809174050C
:101A30008D83198213C08981282F30E08981882FF6
:101A400090E04B815C81840F951F2C5A3A4FF9012D
:101A50002081FC01208389818F5F898399818D8119
:101A6000981748F38D8126960FB6F894DEBF0FBE07
:101A7000CDBFDF91CF9108950F93CF93DF9300D027
:101A800000D01F92CDB7DEB78A837C836B834D83F2
:101A90002E830F838D81813218F081E076C00000A3
:101AA00080914C058823D9F782E080934C058F8183
:101AB00080934E058FEF8093B905109274058D8148
:101AC00080937505198213C08981882F90E02B813E
:101AD0003C81280F391F8981882F90E0F9012081EE
:101AE0008C5A9A4FFC01208389818F5F8983998169
:101AF0008D81981748F310924D058A81882F90E0C8
:101B0000880F991F982F80914D05892B80934D0543
:101B100080914F058130C1F410924F058BEB90E01E
:101B200020914D05FC0120838CEB90E0FC0180812D
:101B3000882F90E088709927892B81F78CEB90E0B3
:101B400025ECFC01208307C08CEB90E025EEFC0126
:101B5000208301C000008E81882321F080914C05F4
:101B60008230C1F38091B9058F3F11F480E00DC040
:101B70008091B905803211F482E007C08091B905E7
:101B8000803311F483E001C084E027960FB6F89407
:101B9000DEBF0FBECDBFDF91CF910F910895CF93E0
:101BA000DF9300D01F92CDB7DEB79B838A836C830F
:101BB00080919705282F30E08C81882F90E0820F4C
:101BC000931F819714F081E02CC080914C058430E4
:101BD00011F082E026C0198219C08981882F90E017
:101BE0002A813B81280F391F80919705482F50E0AB
:101BF0008981882F90E0840F951FF90120818A58F0
:101C00009A4FFC01208389818F5F898399818C8120
:101C1000981718F3909197058C81890F80939705F9
:101C200080E00F900F900F900F90DF91CF9108956B
:101C3000CF93DF931F921F92CDB7DEB79A8389832C
:101C400089819A81909353058093520500000F90EB
:101C50000F90DF91CF910895CF93DF931F921F9242
:101C6000CDB7DEB79A83898389819A819093510594
:101C70008093500500000F900F90DF91CF91089551
:101C8000CF93DF931F92CDB7DEB7898389818823F5
:101C900031F08CEB90E025ECFC01208305C08CEB4F
:101CA00090E025E8FC01208300000F90DF91CF91A8
:101CB0000895CF93DF93CDB7DEB78CEB90E025EDA1
:101CC000FC01208301C000008CEB90E0FC018081CE
:101CD000882F90E080719927892BA9F710924C05E5
:101CE0000000DF91CF910895CF93DF93CDB7DEB79A
:101CF0008CEB90E025ECFC01208310924C05000059
:101D0000DF91CF9108951F920F920FB60F92112479
:101D10000BB60F922F933F934F935F936F937F93E5
:101D20008F939F93AF93BF93EF93FF93CF93DF93E3
:101D3000CDB7DEB789EB90E0FC018081882F90E081
:101D4000887F9927092E000CAA0BBB0B893F9105B0
:101D5000A105B10508F0FFC1FC018827ED54F14F42
:101D60008F4F0C941764A610AB10AB10AB10AB10D8
:101D7000AB10AB10AB10AC0FAB10AB10AB10AB108B
:101D8000AB10AB10AB10AC0FAB10AB10AB10AB107B
:101D9000AB10AB10AB10B50FAB10AB10AB10AB1062
:101DA000AB10AB10AB10DF0FAB10AB10AB10AB1028
:101DB000AB10AB10AB10B50FAB10AB10AB10AB1042
:101DC000AB10AB10AB10E40FAB10AB10AB10AB1003
:101DD000AB10AB10AB10E90FAB10AB10AB10AB10EE
:101DE000AB10AB10AB10FE0FAB10AB10AB10AB10C9
:101DF000AB10AB10AB102B10AB10AB10AB10AB108B
:101E0000AB10AB10AB10EE0FAB10AB10AB10AB10B8
:101E1000AB10AB10AB100A10AB10AB10AB10AB108B
:101E2000AB10AB10AB102D10AB10AB10AB10AB1058
:101E3000AB10AB10AB102D10AB10AB10AB10AB1048
:101E4000AB10AB10AB102D10AB10AB10AB10AB1038
:101E5000AB10AB10AB102D10AB10AB10AB10AB1028
:101E6000AB10AB10AB103510AB10AB10AB10AB1010
:101E7000AB10AB10AB106C10AB10AB10AB10AB10C9
:101E8000AB10AB10AB103510AB10AB10AB10AB10F0
:101E9000AB10AB10AB106C10AB10AB10AB10AB10A9
:101EA000AB10AB10AB104F10AB10AB10AB10AB10B6
:101EB000AB10AB10AB106F10AB10AB10AB10AB1086
:101EC000AB10AB10AB106F10AB10AB10AB10AB1076
:101ED000AB10AB10AB108510AB10AB10AB10AB1050
:101EE000AB10AB10AB10A110AB10AB10AB10AB1024
:101EF000AB10AB10AB10A110AB10AB10AB10AB1014
:101F0000AB10AB10AB10AB10AB10AB10AB10AB10F9
:101F1000AB10AB10AB10AB10AB10AB10AB10AB10E9
:101F2000AB10AB10AB10AB10AB10AB10AB10AB10D9
:101F3000AB10AB10AB10AB10AB10AB10AB10AB10C9
:101F4000AB10AB10AB10AB10AB10AB10AB10AB10B9
:101F5000AB10AB10AB10AA108BEB90E020914D05AD
:101F6000FC01208381E08CDEF6C0909174058091A5
:101F70007505981798F48091740591E0980F9093E7
:101F80007405282F30E08BEB90E02C5A3A4FF90182
:101F90002081FC01208381E073DEDDC080914E054D
:101FA000882311F086DED7C081E080934F058CEB4B
:101FB00090E024EAFC01208310924C05CCC080E222
:101FC0008093B90576DEC7C080E38093B90571DEE2
:101FD000C2C088E38093B90587DEBDC02BEB30E03B
:101FE0008091740591E0980F90937405882F90E08C
:101FF000F90120818C5A9A4FFC012083909174053D
:1020000080917505981718F481E03ADEA4C080E04D
:1020100037DEA1C02BEB30E08091740591E0980F82
:1020200090937405882F90E0F90120818C5A9A4F83
:10203000FC01208380914E05882311F03ADE8BC08D
:1020400081E080934F058CEB90E024EAFC01208333
:1020500010924C0580C02DDE7EC083E080934C053D
:102060001092B80581E00CDE76C08091B805803210
:1020700098F42BEB30E08091B80591E0980F9093A5
:10208000B805882F90E0F901208188569A4FFC010D
:10209000208381E0F5DD5FC080E0F2DD5CC024DEFE
:1020A0008091B805803240F48091B805882F90E087
:1020B00088569A4FFC0110822091520530915305A9
:1020C0008091B805882F90E0BC0188E995E0F9017E
:1020D00019951092B8053FC080E0D2DD3CC084E085
:1020E00080934C05109296051092970580915005AB
:1020F00090915105FC01199580919705882329F449
:1021000081E080939705109276058091960591E085
:10211000980F90939605282F30E08BEB90E02A588B
:102120003A4FF9012081FC0120839091960580911E
:102130009705981718F481E0A3DD0DC080E0A0DDBD
:102140000AC081E09DDD10924C0505C01092B905D2
:10215000B0DD01C000000000DF91CF91FF91EF9151
:10216000BF91AF919F918F917F916F915F914F91AF
:102170003F912F910F900BBE0F900FBE0F901F90AD
:1021800018950F931F93CF93DF9300D000D0CDB756
:10219000DEB789836A835C834B833E832D832D81E5
:1021A0003E818B819C8189019C0141E06A8189810A
:1021B0000BD026960FB6F894DEBF0FBECDBFDF91D1
:1021C000CF911F910F9108950F931F93CF93DF939A
:1021D000CDB7DEB72D970FB6F894DEBF0FBECDBFDB
:1021E0008F83688749873B872A871D870C871982D9
:1021F0000E949457DC01CB018B839C83AD83BE830B
:102200001A829A818985981708F065C06F8180E4E9
:1022100095E0A7D9688580E495E0F1D980E495E060
:10222000DDD96F8180E495E09CD98985282F30E045
:102230008A81882F90E0A901481B590BCA0181327D
:10224000910514F080E290E0482F6F8180E495E0E2
:1022500071D980E495E050DA892BE1F08C859D8579
:10226000892BB1F00E9494579B01AC018B819C811A
:10227000AD81BE81281B390B4A0B5B0B8C859D857C
:10228000CC01A0E0B0E0281739074A075B0710F43B
:1022900081E001C080E0882399F080E495E045DA90
:1022A000AC018981082E000C990B2A853B85820F91
:1022B000931F242FFC01208389818F5F8983C9CFDD
:1022C00080E495E08BD98985813208F080E29A819B
:1022D000890F8A8396CF8C859D85892B11F10E9469
:1022E00094579B01AC018B819C81AD81BE81281BE1
:1022F000390B4A0B5B0B8C859D85CC01A0E0B0E0CF
:10230000281739074A075B0760F08981282F880F53
:10231000330B8985882F90E02817390714F481E062
:1023200001C080E0882311F08FEF898389812D9689
:102330000FB6F894DEBF0FBECDBFDF91CF911F91D6
:102340000F910895CF93DF9300D01F921F92CDB7C6
:10235000DEB78A836B834C832D8380910602909134
:1023600007029C01CE010196AC016B818A8109DFD5
:102370008D81882371F08C81282F30E081E090E0FE
:1023800002C0880F991F2A95E2F7982F8981892B1F
:102390000DC08C81282F30E081E090E002C0880FD2
:1023A000991F2A95E2F780959981892389838981EC
:1023B000482F6B818A8177D00F900F900F900F90EC
:1023C0000F90DF91CF9108950F93CF93DF9300D0BB
:1023D00000D01F92CDB7DEB78B836C834D832E83E5
:1023E0000F832091060230910702CE010296AC01C4
:1023F0006C818B81C6DE982F81E0992309F480E0FF
:10240000882309F445C08E81282F30E081E090E0D8
:1024100002C0880F991F2A95E2F701972D81422F5C
:1024200050E02E81222F30E0BA01621B730B9B011A
:102430002F5F3F4F02C0880F991F2A95E2F78983CB
:102440008F81882F90E02D81422F50E02E81222F06
:1024500030E0BA01621B730B9B012F5F3F4F02C03C
:10246000880F991F2A95E2F78F839F81898189239D
:102470008F83898180959A8189238A839A818F812C
:10248000892B8A838A81482F6C818B810CD001C073
:1024900080E027960FB6F894DEBF0FBECDBFDF9168
:1024A000CF910F910895CF93DF9300D0CDB7DEB7D2
:1024B00089836A834B83CE0103969C0141E06A8144
:1024C000898106D00F900F900F90DF91CF910895E2
:1024D000CF93DF9300D000D01F92CDB7DEB78B83B0
:1024E0006C834D833F832E831A826B8180E495E059
:1024F00038D86C8180E495E082D8198299818D81E9
:10250000981788F48981882F90E02E813F81820F6F
:10251000931FFC018081682F80E495E070D8898149
:102520008F5F8983EBCF80E495E058D88A8381E080
:102530009A81992309F080E027960FB6F894DEBFC0
:102540000FBECDBFDF91CF910895CF93DF931F9240
:102550001F92CDB7DEB79A83898389819A8128E655
:10256000FC01208300000F900F90DF91CF91089520
:10257000CF93DF931F921F92CDB7DEB79A838983E3
:1025800089819A8161E00DD189819A8160E028D0AA
:1025900089819A8160E03ED089819A8160E0EAD0A9
:1025A00000000F900F90DF91CF9108950F93CF937C
:1025B000DF9300D0CDB7DEB79A8389836B8389819F
:1025C0009A81FC0180810B8123E042E06AE1FCDE1C
:1025D00000000F900F900F90DF91CF910F91089511
:1025E0000F93CF93DF9300D0CDB7DEB79A83898363
:1025F0006B8389819A81FC0180810B8122E044E018
:102600006BE1E2DE00000F900F900F90DF91CF9111
:102610000F9108950F93CF93DF9300D0CDB7DEB71E
:102620009A8389836B8389819A81FC0180810B81E4
:1026300022E044E06CE1C8DE00000F900F900F90A4
:10264000DF91CF910F9108950F931F93CF93DF9355
:102650001F921F92CDB7DEB79A83898340910602FD
:102660005091070289819A819C012F5F3F4F898198
:102670009A81FC0180818A0142E063E4A5DD8981C1
:102680009A81FC018181882F90E0382F222789814F
:102690009A81FC018281882F90E0822B932B0F90EE
:1026A0000F90DF91CF911F910F9108950F931F937A
:1026B000CF93DF931F921F92CDB7DEB79A838983A2
:1026C000409106025091070289819A819C012F5FF7
:1026D0003F4F89819A81FC0180818A0142E065E453
:1026E00073DD89819A81FC018181882F90E0382FE8
:1026F000222789819A81FC018281882F90E0822B98
:10270000932B0F900F90DF91CF911F910F91089510
:102710000F931F93CF93DF931F921F92CDB7DEB716
:102720009A838983409106025091070289819A8198
:102730009C012F5F3F4F89819A81FC0180818A0132
:1027400042E067E441DD89819A81FC018181882F23
:1027500090E0382F222789819A81FC018281882F7D
:1027600090E0822B932B0F900F90DF91CF911F91D0
:102770000F910895CF93DF9300D0CDB7DEB79A8342
:1027800089836B832B8189819A81FC01808146E05A
:102790006BE6D8DD00000F900F900F90DF91CF9186
:1027A00008950F93CF93DF9300D0CDB7DEB79A8310
:1027B00089836B8389819A81FC0180810B8123E06D
:1027C00042E06BE601DE00000F900F900F90DF916A
:1027D000CF910F910895CF93DF931F921F92CDB7A2
:1027E000DEB79A83898380E495E00E94E3098981BA
:1027F000682F8AEB95E0DADE8AEB95E0B9DE00001F
:102800000F900F90DF91CF9108950F931F93CF9367
:10281000DF931F921F92CDB7DEB79A8389838AEB2D
:1028200095E012DF9C0189819A81FC01318320832C
:1028300089819A818C010E5F1F4F8AEB95E036DF0C
:10284000F8019183808389819A818C010C5F1F4FED
:102850008AEB95E05DDFF8019183808300000F90A3
:102860000F90DF91CF911F910F910895CF93DF9338
:1028700000D01F92CDB7DEB79A8389837C836B83A8
:1028800089819A81019739F48B819C81019619F491
:102890008AEB95E05ADE00000F900F900F900F909A
:1028A000DF91CF910895CF93DF93CDB7DEB76FEF70
:1028B0007FEF81E090E0DADFDF91CF910895EF9232
:1028C000FF920F931F93CF93DF93CDB7DEB72C9773
:1028D0000FB6F894DEBF0FBECDBF69837A838B83BA
:1028E0009C832D833E834F835887E986FA860B8726
:1028F0001C87898161E00E94DC5A89819A81019656
:102900009C0189819A81AB81BC81A901BC01CD0167
:10291000FED020E030E0A90169857A858B859C8511
:102920000E94FD531816BCF469857A858B859C85B9
:102930000E947E52DC01CB018C016D817E818F81F2
:1029400098850E947E52DC01CB019C0189819A818D
:10295000A801B9015BD189819A8101962C960FB6A5
:10296000F894DEBF0FBECDBFDF91CF911F910F91C5
:10297000FF90EF900895CF93DF931F921F92CDB7F2
:10298000DEB79A83898300000F900F90DF91CF917B
:102990000895CF93DF9300D000D01F92CDB7DEB75C
:1029A0009B838A834C835D836E837F838A819B8133
:1029B0008823A9F18A819B818150898320E030E0BE
:1029C000A9016C817D818E819F810E94755288232F
:1029D000D4F48C819D81AE81BF81B0588C839D835E
:1029E000AE83BF836C817D818E819F810E947E52E8
:1029F0009B01AC018981882F90E0A0E0B0E0BC0190
:102A0000CD01E3D00CC06C817D818E819F810E94BD
:102A10007952DC01CB01BC0189810E94625900001E
:102A200027960FB6F894DEBF0FBECDBFDF91CF91D2
:102A30000895CF93DF9300D0CDB7DEB79B838A8311
:102A40008A819B81882379F019828A819B818150B8
:102A500089838981882F90E0A0E0B0E040E050E0D9
:102A6000BC01CD0154D000000F900F900F90DF916A
:102A7000CF910895CF93DF9300D000D000D0CDB791
:102A8000DEB76E837F83888799871C821B821A82B8
:102A900019821D828E819F81A885B985689412F85C
:102AA000B695A795979587951694D1F79C838B83B8
:102AB0008E8187708D838B819C8187539A4FFC0117
:102AC00040818D81282F30E081E090E002C0880FA6
:102AD000991F2A95E2F78423882F90E09A838983AF
:102AE00089819A81892B31F08E819F8101969A8309
:102AF000898302C01A82198289819A8129960FB628
:102B0000F894DEBF0FBECDBFDF91CF910895CF9374
:102B1000DF9300D000D000D01F92CDB7DEB76D8319
:102B20007E838F8398875A8749871A8219821B82EE
:102B30001C828D819E81AF81B885689412F8B6950C
:102B4000A795979587951694D1F79A8389838D8158
:102B500087708B838B81282F30E081E090E002C06A
:102B6000880F991F2A95E2F78C8389859A85892B8E
:102B700099F48C8180958C8389819A8187539A4FAF
:102B8000FC0190818C81292F282389819A81875388
:102B90009A4FFC0120830FC089819A8187539A4FF5
:102BA000FC0190818C81292F282B89819A81875360
:102BB0009A4FFC01208300002A960FB6F894DEBFDE
:102BC0000FBECDBFDF91CF910895CF93DF9300D09B
:102BD00000D01F921F92CDB7DEB769837A838B83B3
:102BE0009C832D833E834F8358878D819E812981CD
:102BF000BC01822F0E946259000028960FB6F894FB
:102C0000DEBF0FBECDBFDF91CF910895CF93DF938D
:102C100000D000D000D0CDB7DEB79D838C837F83FA
:102C20006E83598748878C819D818C559D4F9A83EF
:102C3000898389819A81FC0184918B838B81882F80
:102C400090E0092E000CAA0BBB0B0197A109B1095A
:102C500082319105A105B10508F051C2FC01882718
:102C6000EB5CF94E8F4F0C941764471651165B16A8
:102C70008516AF167F18D916EF1605172F17591797
:102C80008317AD17D7177F1801182B18551884E430
:102C900090E0FC01208184E490E02068FC01208326
:102CA0002EC284E490E0FC01208184E490E0206264
:102CB000FC01208324C280E890E0FC018081282F61
:102CC0002C7F80E890E02260FC01208381E890E086
:102CD000FC018081982F907E8E81292F282B81E8FE
:102CE00090E02061FC01208386E890E0288539850A
:102CF000FC013183208380E890E0FC01208180E8A2
:102D000090E02068FC012083FAC180E890E0FC019B
:102D10008081282F2C7F80E890E02260FC012083B6
:102D200081E890E0FC018081982F907E8E81292F90
:102D3000282B81E890E02061FC01208386E890E068
:102D400028853985FC013183208380E890E0FC01EF
:102D5000208180E890E02062FC012083D0C180E8DF
:102D600090E0FC018081282F2C7F80E890E0226099
:102D7000FC01208381E890E0FC018081982F907E07
:102D80008E81292F282B81E890E02061FC0120838F
:102D900086E890E028853985FC013183208380E82E
:102DA00090E0FC01208180E890E02860FC01208315
:102DB000A6C180EB90E0FC01208180EB90E02068D0
:102DC000FC01208381EB90E0FC018081382F387F6B
:102DD0002E8181EB90E0232BFC01208390C180EBBE
:102DE00090E0FC01208180EB90E02062FC012083D8
:102DF00081EB90E0FC018081382F387F2E8181EBC0
:102E000090E0232BFC0120837AC180E990E0FC0153
:102E10008081282F2C7F80E990E02260FC012083B4
:102E200081E990E0FC018081982F907E8E81292F8E
:102E3000282B81E990E02061FC01208386E990E065
:102E400028853985FC013183208380E990E0FC01ED
:102E5000208180E990E02068FC01208350C180E956
:102E600090E0FC018081282F2C7F80E990E0226097
:102E7000FC01208381E990E0FC018081982F907E05
:102E80008E81292F282B81E990E02061FC0120838D
:102E900086E990E028853985FC013183208380E92B
:102EA00090E0FC01208180E990E02062FC01208319
:102EB00026C180E990E0FC018081282F2C7F80E9E9
:102EC00090E02260FC01208381E990E0FC01808198
:102ED000982F907E8E81292F282B81E990E0206108
:102EE000FC01208386E990E028853985FC01318347
:102EF000208380E990E0FC01208180E990E0286057
:102F0000FC012083FCC080EA90E0FC018081282F36
:102F10002C7F80EA90E02260FC01208381EA90E02F
:102F2000FC018081982F907E8E81292F282B81EAA9
:102F300090E02061FC01208386EA90E028853985B5
:102F4000FC013183208380EA90E0FC01208180EA4B
:102F500090E02068FC012083D2C080EA90E0FC0170
:102F60008081282F2C7F80EA90E02260FC01208362
:102F700081EA90E0FC018081982F907E8E81292F3C
:102F8000282B81EA90E02061FC01208386EA90E012
:102F900028853985FC013183208380EA90E0FC019B
:102FA000208180EA90E02062FC012083A8C080EAB2
:102FB00090E0FC018081282F2C7F80EA90E0226045
:102FC000FC01208381EA90E0FC018081982F907EB3
:102FD0008E81292F282B81EA90E02061FC0120833B
:102FE00086EA90E028853985FC013183208380EAD8
:102FF00090E0FC01208180EA90E02860FC012083C1
:103000007EC080E291E0FC018081282F2C7F80E24D
:1030100091E02260FC01208381E291E0FC0180814B
:10302000982F907E8E81292F282B81E291E02061BC
:10303000FC01208386E291E028853985FC013183FB
:10304000208380E291E0FC01208180E291E0206811
:10305000FC01208354C080E291E0FC018081282F94
:103060002C7F80E291E02260FC01208381E291E0EC
:10307000FC018081982F907E8E81292F282B81E260
:1030800091E02061FC01208386E291E0288539856A
:10309000FC013183208380E291E0FC01208180E209
:1030A00091E02062FC0120832AC080E291E0FC01D3
:1030B0008081282F2C7F80E291E02260FC01208318
:1030C00081E291E0FC018081982F907E8E81292FF2
:1030D000282B81E291E02061FC01208386E291E0CF
:1030E00028853985FC013183208380E291E0FC0151
:1030F000208180E291E02860FC01208300008C8127
:1031000060E00E947B5C000029960FB6F894DEBF59
:103110000FBECDBFDF91CF910895CF93DF931F9264
:103120001F92CDB7DEB789836A838A81882329F409
:1031300060E089810E94DC5A0CC08A81813029F4C8
:1031400061E089810E94DC5A04C062E089810E94AA
:10315000DC5A00000F900F90DF91CF910895CF932C
:10316000DF931F921F92CDB7DEB789836A838A816E
:10317000882329F061E089810E947B5C04C060E0C3
:1031800089810E947B5C00000F900F90DF91CF91AE
:103190000895CF93DF93CDB7DEB76A970FB6F89453
:1031A000DEBF0FBECDBF80E290E09E838D8319828B
:1031B0001A821B821C828D819E81809741F458D097
:1031C000DC01CB0189839A83AB83BC8342C081E05D
:1031D00090E09A878987CE010996FC01908181E071
:1031E000913009F480E0882F90E098878F838F8159
:1031F0009885009719F00197B9F02BC080E090E016
:10320000A0EFBFE78F87988BA98BBA8B1B861C8694
:103210001D861E868B859C85AD85BE8589839A8398
:10322000AB83BC83000015C080E090E0A0EFBFE757
:103230008B8B9C8BAD8BBE8B1F8A188E198E1A8E32
:103240008B899C89AD89BE8989839A83AB83BC8332
:10325000000089819A81AB81BC81BC01CD016A9655
:103260000FB6F894DEBF0FBECDBFDF91CF910895AA
:10327000CF93DF9300D01F92CDB7DEB780E090E010
:10328000A0E8BFE789839A83AB83BC8389819A8155
:10329000AB81BC81BC01CD010F900F900F900F90BE
:1032A000DF91CF910895CF93DF93CDB7DEB76A97C3
:1032B0000FB6F894DEBF0FBECDBF80E290E09E83D4
:1032C0008D8319821A821B821C828D819E81809738
:1032D00041F458D0DC01CB0189839A83AB83BC8352
:1032E00042C081E090E09A878987CE010996FC016F
:1032F000908181E0913009F480E0882F90E09887F8
:103300008F838F819885009719F00197B9F02BC0B2
:1033100080E090E0A0EFBFEF8F87988BA98BBA8BEE
:103320001B861C861D861E868B859C85AD85BE856D
:1033300089839A83AB83BC83000015C080E090E052
:10334000A0EFBFEF8B8B9C8BAD8BBE8B1F8A188E33
:10335000198E1A8E8B899C89AD89BE8989839A833F
:10336000AB83BC83000089819A81AB81BC81BC01A5
:10337000CD016A960FB6F894DEBF0FBECDBFDF91C8
:10338000CF910895CF93DF9300D01F92CDB7DEB7D2
:1033900080E090E0A0E8BFEF89839A83AB83BC8391
:1033A00089819A81AB81BC81BC01CD010F900F90C6
:1033B0000F900F90DF91CF910895CF93DF93CDB70A
:1033C000DEB76A970FB6F894DEBF0FBECDBF80E2BE
:1033D00090E09E838D8319821A821B821C828D81CC
:1033E0009E81809741F45BD0DC01CB0189839A8375
:1033F000AB83BC8345C081E090E09A878987CE018A
:103400000996FC01908181E0913009F480E0882FD9
:1034100090E098878F838F819885009719F00197A6
:10342000B9F02EC080E090E0A8EFBFEF8F87988BB7
:10343000A98BBA8B1B861C861D861E868B859C8558
:10344000AD85BE8589839A83AB83BC83000018C099
:103450008FEF9FEFAFEFBFE78B8B9C8BAD8BBE8B5E
:103460008FEF9FEFDC018F8B988FA98FBA8F8B899D
:103470009C89AD89BE8989839A83AB83BC83000014
:1034800089819A81AB81BC81BC01CD016A960FB65E
:10349000F894DEBF0FBECDBFDF91CF910895CF93DB
:1034A000DF9300D000D01F921F92CDB7DEB71B82F2
:1034B0001C821D821E8281E090E098878F83CE015E
:1034C0000796FC01908181E0913009F480E0882F1B
:1034D00090E09A83898389819A81009719F00197F6
:1034E00051F012C080E090E0A0ECBFEF8B839C8392
:1034F000AD83BE8309C08FEF9FEFAFEFBFE78B8334
:103500009C83AD83BE8300008B819C81AD81BE8195
:10351000BC01CD0128960FB6F894DEBF0FBECDBF1B
:10352000DF91CF910895CF93DF931F921F92CDB774
:10353000DEB79A83898341DFDC01CB0180934C099C
:1035400090934D09A0934E09B0934F09A8DFDC0179
:10355000CB018093400990934109A0934209B09315
:10356000430917DEDC01CB01809348099093490998
:10357000A0934A09B0934B097BDEDC01CB01809319
:10358000440990934509A0934609B09347098BDEFF
:10359000DC01CB018093500990935109A09352090B
:1035A000B0935309EFDEDC01CB0180935409909373
:1035B0005509A0935609B093570900000F900F903A
:1035C000DF91CF910895CF93DF9300D01F92CDB7B5
:1035D000DEB769837A838B839C83809144099091C1
:1035E0004509A0914609B09147099C01AD01698147
:1035F0007A818B819C810E947552882391F0809101
:10360000540990915509A0915609B09157099C0110
:10361000AD0169817A818B819C810E9475528823DA
:1036200011F481E001C080E00F900F900F900F9097
:10363000DF91CF910895CF93DF9300D000D01F92F8
:103640001F92CDB7DEB76D837E838F8398878D8180
:103650009E81AF81B88589839A83AB83BC8389813E
:103660009A81AB81BC8188279927A078BF77009782
:10367000A048BF4769F489819A81AB81BC81AF774B
:10368000BB27892B8A2B8B2B19F081E090E002C09D
:1036900080E090E028960FB6F894DEBF0FBECDBF55
:1036A000DF91CF910895CF93DF9300D01F92CDB7D4
:1036B000DEB79A8389837C836B838B819C8122E331
:1036C000FC0120838B819C8123E3FC0121838B817E
:1036D0009C8124E3FC0122838B819C8125E3FC01F6
:1036E00023838B819C8126E3FC0124838B819C8135
:1036F00027E3FC0125838B819C8128E3FC01268341
:103700008B819C8129E3FC0127838B819C8121E3B0
:10371000FC0120878B819C8120E3FC0121878B8128
:103720009C8121E3FC0122878B819C8121E3FC01A8
:1037300023878B819C8121E3FC0124878B819C81E1
:1037400022E3FC0125878B819C8121E3FC012687F4
:103750008B819C8123E3FC01278789819A812B81BE
:103760003C81FC013783268329813A8185E090E002
:10377000A0E0B0E0F90182879387A487B5870000B5
:103780000F900F900F900F90DF91CF910895CF93EE
:10379000DF931F921F92CDB7DEB79A838983898109
:1037A0009A81FC018081882329F489819A8121E012
:1037B000FC01208300000F900F90DF91CF910895BE
:1037C000CF93DF931F921F92CDB7DEB79A83898381
:1037D00089819A81FC018081882329F489819A81D9
:1037E00021E0FC01208300000F900F90DF91CF912A
:1037F0000895CF93DF931F921F92CDB7DEB79A83C0
:10380000898389819A81FC018081882329F48981B7
:103810009A8121E0FC01208300000F900F90DF913E
:10382000CF910895CF93DF931F921F92CDB7DEB74C
:103830009A83898389819A81FC0181819281A38104
:10384000B4810197A105B105A9F589819A81FC018F
:103850008581882379F189819A81FC01828593850C
:10386000A485B585BC01CD0105D99C0189819A81CA
:10387000FC013187208789819A81FC0180859185AF
:1038800040E050E0BA0185D889819A81FC018285A7
:103890009385A485B585BC01CD01ECD89C018981B7
:1038A0009A81FC013187208789819A81FC0180857A
:1038B0009185BFD800000F900F90DF91CF910895B0
:1038C000CF93DF931F921F92CDB7DEB79A83898380
:1038D00089819A81A7DF00000F900F90DF91CF912F
:1038E0000895CF93DF931F921F92CDB7DEB79A83CF
:1038F000898389819A81FC018081882341F48981AF
:103900009A8121E0FC01208389819A81D9DF00001E
:103910000F900F90DF91CF9108958F929F92AF9269
:10392000BF92CF92DF92EF92FF920F931F93CF93AC
:10393000DF93CDB7DEB76C970FB6F894DEBF0FBE3E
:10394000CDBF80912803813069F48091FC02909171
:10395000FD02A091FE02B091FF0289839A83AB839E
:10396000BC830CC08091F8029091F902A091FA02F8
:10397000B091FB0289839A83AB83BC8320E030E063
:10398000A90169817A818B819C810E94FD5318165F
:1039900024F48091CE0918167CF420E030E0A901CF
:1039A00069817A818B819C810E9475521816A4F0DE
:1039B0008091CE09813081F48091080390910903B0
:1039C000A0910A03B0910B038093BA099093BB09AD
:1039D000A093BC09B093BD098091BA099091BB092D
:1039E000A091BC09B091BD0980938B0A90938C0A79
:1039F000A0938D0AB0938E0ACE0147960E940514BB
:103A00008F89988D9093A40A8093A30A8091A30A2A
:103A10009091A40A092E000CAA0BBB0BBC01CD018E
:103A20000E94AC527B018C0180910C0390910D039C
:103A3000A0910E03B0910F039C01AD01C801B70125
:103A40000E941052DC01CB017C018D01809110039A
:103A500090911103A0911203B09113039C01AD0149
:103A6000C801B7010E940154DC01CB0180938F0A89
:103A70009093900AA093910AB093920A60E070E04C
:103A8000CB010E943109DC01CB018D879E87AF8776
:103A9000B88BC0901403D0901503E0901603F090FB
:103AA00017036D857E858F8598890E94AC52DC0155
:103AB000CB019C01AD01C701B6010E940154DC019C
:103AC000CB018093930A9093940AA093950AB093A4
:103AD000960A80918B0A90918C0AA0918D0AB091E0
:103AE0008E0A2091930A3091940A4091950A509140
:103AF000960ABC01CD010E941152DC01CB017C0170
:103B00008D018091EC029091ED02A091EE02B091B6
:103B1000EF02B0589C01AD01C801B7010E940154E9
:103B2000DC01CB018093970A9093980AA093990A9D
:103B3000B0939A0A8091930A9091940AA091950A61
:103B4000B091960A209118033091190340911A03FD
:103B500050911B03BC01CD010E940154DC01CB013B
:103B6000898B9A8BAB8BBC8B8091BE099091BF09DE
:103B7000A091C009B091C1099C01AD0169897A8900
:103B80008B899C890E941052DC01CB017C018D0144
:103B900080918F0A9091900AA091910AB091920A17
:103BA0009C01AD01C801B7010E941152DC01CB019B
:103BB0007C018D018091EC029091ED02A091EE02CA
:103BC000B091EF02B0589C01AD01C801B7010E944D
:103BD0000154DC01CB017C018D018091E0029091C8
:103BE000E102A091E202B091E3029C01AD01C801A3
:103BF000B7010E940154DC01CB016C017D01809171
:103C0000DC029091DD02A091DE02B091DF022091F2
:103C1000970A3091980A4091990A50919A0ABC01EA
:103C2000CD010E940154DC01CB019C01AD01C70113
:103C3000B6010E941152DC01CB016C017D01809123
:103C4000E4029091E502A091E602B091E702209192
:103C50008B0A30918C0A40918D0A50918E0ABC01DA
:103C6000CD010E940154DC01CB019C01AD01C701D3
:103C7000B6010E941152DC01CB016C017D018091E3
:103C8000E8029091E902A091EA02B091EB02209142
:103C90008F0A3091900A4091910A5091920ABC018A
:103CA000CD010E940154DC01CB019C01AD01C70193
:103CB000B6010E941152DC01CB017C018D01809183
:103CC0001C0390911D03A0911E03B0911F039C0142
:103CD000AD01C801B7010E940154DC01CB01809302
:103CE0009B0A90939C0AA0939D0AB0939E0A809190
:103CF0009B0A90919C0AA0919D0AB0919E0A2091E6
:103D0000000330910103409102035091030311E03D
:103D1000BC01CD010E94755288230CF010E0812F68
:103D2000682F84E01CDA88E599E09E8B8D8B80916A
:103D3000620990916309A0916409B0916509BC0181
:103D4000CD010E943A159C018D899E89FC01318725
:103D5000208780919B0A90919C0AA0919D0AB09126
:103D60009E0A2091F4023091F5024091F6025091A2
:103D7000F702BC01CD010E94FD5318166CF480912E
:103D8000F4029091F502A091F602B091F7028987B2
:103D90009A87AB87BC872FC080919B0A90919C0A21
:103DA000A0919D0AB0919E0A209120033091210399
:103DB0004091220350912303BC01CD010E94755212
:103DC00088236CF48091200390912103A091220319
:103DD000B091230389879A87AB87BC870CC08091F9
:103DE0009B0A90919C0AA0919D0AB0919E0A898796
:103DF0009A87AB87BC878091240390912503A0917B
:103E00002603B091270329853A854B855C85BC0143
:103E1000CD010E940154DC01CB01BC01CD010E9407
:103E2000E752DC01CB018D839E83AF83B8878D8100
:103E30009E81AF81B885BC01CD01FDDB882349F4AB
:103E40008D819E81AF81B885BC01CD01BCDB88230B
:103E500029F01D821E821F82188612C08D819E81CC
:103E6000AF81B88520E030E040E853E4BC01CD01EB
:103E70000E940153DC01CB018D839E83AF83B88701
:103E800020E030E0A9016D817E818F8198850E94BC
:103E900075528823CCF48D819E81AF81B885B0584E
:103EA000BC01CD010E947E52DC01CB018195882F9F
:103EB00090E0092E000CAA0BBB0BBC01CD010E94A7
:103EC000AC52DC01CB0114C06D817E818F8198855D
:103ED0000E947E52DC01CB01882F90E0092E000C5D
:103EE000AA0BBB0BBC01CD010E94AC52DC01CB0183
:103EF0002091600930916109AC01BD01C9010E94A6
:103F0000C91483ED99E082559F4FFC018081918116
:103F1000FC0180819181A281B38180939F0A90935B
:103F2000A00AA093A10AB093A20AC090BA09D090A7
:103F3000BB09E090BC09F090BD0980910403909109
:103F40000503A0910603B091070320918F0A3091D9
:103F5000900A4091910A5091920ABC01CD010E94B1
:103F60000154DC01CB019C01AD01C701B6010E94E7
:103F70001152DC01CB018093BA099093BB09A09345
:103F8000BC09B093BD0920E030E0A90169817A81C4
:103F90008B819C810E94FD53181624F481E080934C
:103FA000CE0920C020E030E0A90169817A818B81AF
:103FB0009C810E947552882324F48FEF8093CE0950
:103FC00011C020E030E0A90169817A818B819C8158
:103FD0000E947552882319F41092CE0903C082E022
:103FE0008093CE0989899A89AB89BC898093BE095F
:103FF0009093BF09A093C009B093C10982E090E0FB
:104000000E948B3983ED99E082559F4FFC0180819E
:104010009181FC0180819181A281B381AC01BD01BC
:1040200080E090E00E94603983ED99E081569F4FD7
:10403000FC0180819181A281B381BC01CD010E94EC
:10404000AA526B017C0183ED99E08D559F4FFC01D5
:1040500080819181A281B381BC01CD010E94AA52CD
:10406000DC01CB0120E030E040E85FE4BC01CD01A1
:104070000E940154DC01CB019C01AD01C701B601D6
:104080000E941152DC01CB012FE832EC45EF5CE3DA
:10409000BC01CD010E940154DC01CB01AC01BD018A
:1040A00081E090E00E94603983ED99E089559F4F4F
:1040B000FC0180819181A281B38120E030E040E861
:1040C0005FEBBC01CD010E947552882309F448C002
:1040D00083ED99E089559F4FFC0180819181A281F8
:1040E000B38123ED39E022553F4FF9012081318121
:1040F000F9012081318142815381BC01CD010E94AF
:104100001052DC01CB016C017D0183ED99E08255F9
:104110009F4FFC0180819181FC0180819181A2816E
:10412000B38120E030E040E054E3BC01CD010E94C7
:104130000154DC01CB0111E09C01AD01C701B601C6
:104140000E94FD5318160CF010E081E081278823AF
:1041500039F083ED99E02BEF33E0FC0131832083CC
:1041600083ED99E083559F4FFC018081882339F0CE
:1041700083ED99E02BEF33E0FC013183208323EDC5
:1041800039E0C9018D569F4FFC0180819181A28148
:10419000B3810196A11DB11DA9014D565F4FFA01D2
:1041A00080839183A283B383C9018D569F4FFC0105
:1041B00080819181A281B381892B8A2B8B2BA1F4E1
:1041C00023ED39E0C90189569F4FFC01808191811F
:1041D000A281B3810196A11DB11D29563F4FF9015E
:1041E00080839183A283B38383ED99E08D569F4FA3
:1041F000FC0180819181A281B381BC01CD010E942B
:10420000AA527B018C0183ED99E085569F4FFC01FA
:1042100080819181A281B3819C01AD01C801B70168
:104220000E940154DC01CB016C017D0183ED99E01A
:1042300089569F4FFC0180819181A281B381BC018D
:10424000CD010E94AA524B015C0183ED99E0855695
:104250009F4FFC0180819181A281B3819C01AD01BE
:10426000C501B4010E940154DC01CB0120E030E023
:1042700040E85FE4BC01CD010E940154DC01CB01A8
:104280009C01AD0183ED99E082559F4FFC010081B7
:104290001181C701B6010E941152DC01CB01F80166
:1042A00080839183A283B38323ED39E0C9018156D2
:1042B0009F4FFC0180819181A281B3810196A11D54
:1042C000B11D21563F4FF90180839183A283B383AF
:1042D00083ED99E081569F4FFC0180819181A281FD
:1042E000B381892B8A2B8B2BA1F423ED39E0C901F3
:1042F0008D559F4FFC0180819181A281B3810196F0
:10430000A11DB11D2D553F4FF90180839183A283DB
:10431000B38300006C960FB6F894DEBF0FBECDBF1E
:10432000DF91CF911F910F91FF90EF90DF90CF9091
:10433000BF90AF909F908F900895EF92FF920F9350
:104340001F93CF93DF931F921F92CDB7DEB784E008
:1043500090E0E9D883ED99E048EB50E060E070E050
:104360000E946B6523ED39E083ED99E025553F4FC1
:10437000FC013783268323ED39E083ED99E0225554
:104380003F4F805C9F4FFC013183208323ED39E058
:1043900083ED99E025563F4FFC01358B248B23EDAF
:1043A00039E083ED99E086599F4FFC0131832083EA
:1043B00083ED99E023ED39E0FC013583248383ED1F
:1043C00099E0FC018681978121E030E0FC01318396
:1043D000208383ED99E02FE034E0FC0133872287CE
:1043E00023ED39E083ED99E020553F4F82559F4FF3
:1043F000FC013183208383ED99E09C0129553F4FD7
:1044000080E090E0A0E8BFEBF90180839183A28374
:10441000B38383ED99E09C0125563F4F8FE892ECE2
:10442000A5EFBCE3F90180839183A283B38383ED7D
:1044300099E09C012F573F4F83E79DEBA9E8B8EB2C
:10444000F90180839183A283B38383ED99E09C017A
:104450002B573F4F88EB98EAACE2BFEFF90180831E
:104460009183A283B38383ED99E09C0127573F4F4B
:104470008EE791EAAAE8B6E0F90180839183A283EE
:10448000B38383ED99E09C0123573F4F86EE92EC76
:10449000A1EDBCEEF90180839183A283B38383ED08
:1044A00099E022ED35E0FC01338322838EED95E027
:1044B0009093D3058093D20581E994E09093DF0532
:1044C0008093DE0581E994E09093E1058093E00517
:1044D00081E994E09093E3058093E20581E994E01B
:1044E0009093E5058093E40581E994E09093E705D6
:1044F0008093E60581E994E09093E9058093E805CF
:1045000081E994E09093EB058093EA0523ED39E08F
:1045100083ED99E0FC01828193812F563F4FFC018E
:104520003583248323ED39E083ED99E0FC0182811A
:1045300093812F573F4FFC013383228323ED39E0D2
:1045400083ED99E0FC018281938122553F4FF9016F
:1045500020813181FC01378326834AE150E060E00D
:1045600070E08BE89AE00E946B654BE750E060E0FA
:1045700070E088E599E00E946B6544E150E060E0FE
:1045800070E08CEE95E00E946B6583ED99E08F56AC
:104590009F4F2CEE35E0FC013183208383E190E0D6
:1045A0009093ED058093EC0588E092E09093EF0501
:1045B0008093EE058EE292E09093F1058093F005F2
:1045C0008CEA92E09093F3058093F20588ED92E0F7
:1045D0009093F5058093F4051092A60981E08093ED
:1045E000D10981E090E0A0E0B0E08093A70990932A
:1045F000A809A093A909B093AA0985E090E00E94B8
:10460000EB1381E08093AB091092B40981E08093B1
:10461000D20981E090E0A0E0B0E08093B5099093EA
:10462000B609A093B709B093B80942E050E063E03F
:1046300070E080E090E00E94030881E08093B90977
:104640001092AC0981E08093CF0981E090E0A0E076
:10465000B0E08093AD099093AE09A093AF09B093F9
:10466000B00961E084E00E948D1881E08093B10977
:1046700081E0809358091092590910925A091092BA
:104680005B0910925C091092580981E08093D0096F
:1046900066E779E088E599E006D888E599E09A83AD
:1046A000898310925D0981E090E0A0E0B0E0809302
:1046B000590990935A09A0935B09B0935C098091C2
:1046C000620990916309A0916409B0916509E12C98
:1046D000F12C870120E030E0A901BC01CD010E944E
:1046E0005F149C0189819A81FC0131872087809128
:1046F000620990916309A0916409B0916509BC01B8
:10470000CD010E943A159C0189819A81FC01318773
:10471000208780916009909161090E94BB1481E01B
:1047200080935D098091080390910903A0910A0389
:10473000B0910B038093BA099093BB09A093BC0975
:10474000B093BD0982E08093CE098091F0029091F0
:10475000F102A091F202B091F3028093BE0990930E
:10476000BF09A093C009B093C10900000F900F903A
:10477000DF91CF911F910F91FF90EF900895CF930C
:10478000DF93CDB7DEB786EA99E001D884EB99E0F4
:1047900017D88CEA99E02DD888E599E0A2D80000D6
:1047A000DF91CF910895CF93DF93CDB7DEB7E69732
:1047B0000FB6F894DEBF0FBECDBF9CAB8BAB7EAB0C
:1047C0006DAB8DA99EA99C838B831E821D8281E087
:1047D00090E098878F8382E090E09A87898783E0D2
:1047E00090E09C878B8780E190E09E878D878BA9E6
:1047F0009CA9FC0184819581FC0180819181988B29
:104800008F878F859889FC01808591859A8B898B0C
:104810008F859889FC01828193819C8B8B8B8B8106
:104820009C81FC0180819181A281B3818F8F98A3AB
:10483000A9A3BAA38B819C8104969C838B831A8243
:104840001982D7C04D855E852B813C81CE01839630
:10485000B9010E9462658D859E852B813C81820F06
:10486000931F9C838B8389899A89FC0122813381E0
:104870008D819E81880F991F880F991FAE014F5F10
:104880005F4F840F951F8296FC0180819181A281E8
:10489000B381880F991F880F991F880F991F820F66
:1048A000931FFC01808191819E8B8D8B89899A89D0
:1048B000FC01228133818D819E81880F991F880F91
:1048C000991FAE014F5F5F4F840F951F8296FC01C9
:1048D00080819181A281B381880F991F880F991FD0
:1048E000880F991F820F931FFC0184819581988FF7
:1048F0008F8B8B859C85880F991F880F991F9E0130
:104900002F5F3F4F820F931F8296FC018081918120
:10491000A281B381880F991F2B893C89820F931F35
:10492000FC01408151818F89988D892B19F082E09B
:1049300090E002C081E090E0849F9001859F300D5F
:10494000949F300D11243A8F298F89859A85880F7D
:10495000991F880F991F9E012F5F3F4F820F931F52
:104960008296FC0180819181A281B381AC01298D65
:104970003A8D429FC001439F900D529F900D11248C
:104980009C8F8B8F8F819885880F991F880F991F17
:104990009E012F5F3F4F820F931F8296FC01808103
:1049A0009181A281B381AC01298D3A8D429FC001D2
:1049B000439F900D529F900D11242D893E89820FA7
:1049C000931F9E8F8D8F4B8D5C8D2B813C818D8DA8
:1049D0009E8DB9010E9462658B8D9C8D2B813C81DF
:1049E000820F931F9C838B8389819A8101969A837E
:1049F000898389819A819C01990F440B550B8F8D76
:104A000098A1A9A1BAA1281739074A075B070CF496
:104A100019CF0000E6960FB6F894DEBF0FBECDBFEB
:104A2000DF91CF910895CF93DF93CDB7DEB76E9727
:104A30000FB6F894DEBF0FBECDBF9A8F898F7C8FE3
:104A40006B8F5E8F4D8F898D9A8DFC01848195814E
:104A5000FC01808191819A83898389819A81FC01FB
:104A6000868197819C838B8389819A81FC018281D5
:104A700093819E838D8318861F8281E090E09A87C0
:104A8000898782E090E09C878B8783E090E09E8717
:104A90008D878B819C81FC01228133818F81988558
:104AA000880F991F880F991F4B8D5C8D840F951F60
:104AB000FC0180819181A281B381880F991F880FA9
:104AC000991F880F991F820F931FFC01808191818C
:104AD000988B8F878B819C81FC01228133818F8110
:104AE0009885880F991F880F991F4B8D5C8D840FB7
:104AF000951FFC0180819181A281B381880F991F4C
:104B0000880F991F880F991F820F931FFC018481C2
:104B100095819A8B898B8D859E85880F991F880F2B
:104B2000991F2B8D3C8D820F931FFC0180819181F9
:104B3000A281B381880F991F2D813E81820F931F1F
:104B4000FC014081518189899A89892B19F082E081
:104B500090E002C081E090E0849F9001859F300D3D
:104B6000949F300D11243C8B2B8B8B859C85880F5B
:104B7000991F880F991F2B8D3C8D820F931FFC016D
:104B800080819181A281B381AC012B893C89429FB4
:104B9000C001439F900D529F900D11249E8B8D8BD1
:104BA00089859A85880F991F880F991F2B8D3C8DB9
:104BB000820F931FFC0180819181A281B381AC019E
:104BC0002B893C89429FC001439F900D529F900DBD
:104BD0001124988F8F8B8F89988D2F853889280F76
:104BE000391F8D8D9E8DFC01318320838D8D9E8D8F
:104BF0002D893E89FC013383228300006E960FB617
:104C0000F894DEBF0FBECDBFDF91CF9108950F9313
:104C10001F93CF93DF93CDB7DEB7E1970FB6F8942C
:104C2000DEBF0FBECDBF9BA78AA77DA76CA75FA7DE
:104C30004EA739AB28AB88A999A9FC018081918145
:104C40009C838B831D828B819C81FC01808191815F
:104C5000A281B3818A8B9B8BAC8BBD8B8B819C811A
:104C600004969C838B838AA59BA5FC0120813181BE
:104C70008A899B89AC89BD89880F991F820F931FF0
:104C8000FC01208131818EA59FA5FC013183208309
:104C90008B819C81FC0180819181A281B3818E876F
:104CA0009F87A88BB98B8B819C8104969C838B8377
:104CB0008CA59DA562E070E00E941F649C018EA5FA
:104CC0009FA5FC01338322838EA59FA5FC018281D1
:104CD0009381892B19F481E08D83F6C01A821982A1
:104CE000E2C08B819C81FC0180819181A281B38192
:104CF0008E8B9F8BA88FB98F8B819C8104969C8310
:104D00008B838EA59FA5FC01228133818E899F898B
:104D1000A88DB98D880F991F8901080F191F68E0A8
:104D200070E081E090E00E941F64F801918380832D
:104D30008EA59FA5FC01228133818E899F89A88D34
:104D4000B98D880F991F820F931FFC01808191817B
:104D5000892B19F481E08D83B7C08EA59FA5FC0136
:104D6000228133818E899F89A88DB98D880F991FE3
:104D7000820F931FFC01808191819B878A878A859E
:104D80009B852B813C8144E050E0B9010E94626523
:104D90008B819C8104969C838B838A859B85FC01F7
:104DA00080819181A281B381181619061A061B060B
:104DB000E4F48A859B85FC0180819181A281B38185
:104DC00064E070E00E941F649C018A859B85FC0161
:104DD000358324838A859B85FC0184819581892B79
:104DE00021F481E08D8300006FC01E821F8218862F
:104DF000198643C08A859B85FC01248135818E817B
:104E00009F81880F991F880F991F820F931F9D877D
:104E10008C878B819C8120E1FC01DE015A960190F8
:104E20000D922A95E1F78B819C8140969C838B8320
:104E30004C855D859E01265E3F4F8AA59BA5B901E5
:104E4000F2DD8A859B85FC01268137818C859D85D5
:104E5000FC0182819381280F391F8A859B85FC0183
:104E6000378326838E819F81A885B9850196A11DF0
:104E7000B11D8E839F83A887B9878A859B85FC0196
:104E800080819181A281B3812E813F81488559859E
:104E9000281739074A075B070CF4ACCF89819A8140
:104EA00001969A83898389819A819C01990F440B89
:104EB000550B8E859F85A889B989281739074A0718
:104EC0005B070CF40ECF000088A999A92B813C81C7
:104ED000FC01318320838D81E1960FB6F894DEBF0B
:104EE0000FBECDBFDF91CF911F910F910895CF934A
:104EF000DF9300D000D01F92CDB7DEB79B838A83AB
:104F00004C835D836E837F8319828C819D81AE810A
:104F1000BF81BB231CF481E0898349C08A819B81C6
:104F200021E030E0FC01318320838C819D81AE81C2
:104F3000BF81181619061A061B06A4F48C819D81E0
:104F40000E9439649C018A819B81FC013583248302
:104F50008A819B81FC0184819581892B41F481E0C8
:104F6000898325C08A819B81FC01158214822C8152
:104F70003D818A819B81FC01338322838A819B81CD
:104F8000FC01248135818A819B81FC013783268342
:104F90008A819B81FC01248135818A819B81FC016E
:104FA000318720878A819B81FC0113861286898143
:104FB00027960FB6F894DEBF0FBECDBFDF91CF911D
:104FC0000895CF93DF9300D000D000D01F92CDB7CB
:104FD000DEB76F83788789879A872F81388544E485
:104FE000429FC001439F900D11248F5F994F9A8378
:104FF000898389819A8142969C838B838B819C8152
:105000004C969E838D838D819E81FC018481958148
:10501000892B61F08D819E81FC01848195810E94A4
:10502000D5648D819E81FC01158214828B819C81C7
:10503000FC0184A195A1892B61F08B819C81FC01ED
:1050400084A195A10E94D5648B819C81FC0115A24D
:1050500014A28B819C81FC01118210828B819C8126
:10506000FC0114821582168217828B819C81FC01BF
:1050700010861186128613868B819C81FC01148612
:105080001586168617868B819C8121E030E0FC0115
:10509000318B208B8B819C81FC01138A128A8B813E
:1050A0009C81FC01148A158A168A178A8B819C813F
:1050B000FC01118E108E8B819C81FC01138E128E4F
:1050C0008B819C81FC01148E158E168E178E8B8120
:1050D0009C81FC0111A210A28B819C81FC0113A276
:1050E00012A28B819C81FC0115A214A28B819C8150
:1050F000FC0117A216A28B819C81FC0110A611A6AF
:1051000012A613A68B819C81FC0114A615A616A6D7
:1051100017A68B819C81FC0111AA10AA00002A9677
:105120000FB6F894DEBF0FBECDBFDF91CF910895CB
:10513000CF93DF9300D000D0CDB7DEB76B837C83F5
:105140008D839E832B813C8144E4429FC001439F19
:10515000900D11248F5F994F9A8389838B819C8155
:10516000875D9C4FFC018081882371F089819A8141
:1051700044E450E060E070E00E946B658B819C81AC
:10518000875D9C4FFC01108289819A81FC01148209
:1051900015821682178289819A81FC0111861086F8
:1051A00089819A81FC011386128689819A81FC018A
:1051B000118A108A89819A81FC01178616868B8153
:1051C0009C81AD81BE81BC01CD01FBDE0000269635
:1051D0000FB6F894DEBF0FBECDBFDF91CF9108951B
:1051E000CF93DF93CDB7DEB72E970FB6F894DEBF1F
:1051F0000FBECDBF69877A878B879C875E874D8777
:1052000029853A8544E4429FC001439F900D1124B3
:105210008F5F994F9E838D838D819E81FC01848158
:105220009581A681B781892B8A2B8B2B09F4C4C069
:105230001A82198254C08D819E81FC01208531859E
:1052400089819A81880F991F880F991F820F931F58
:10525000FC018281938198878F831C821B822FC0DF
:105260008B819C81880F991F2F813885820F931F16
:10527000FC0180819181892BE9F08B819C81880FD1
:10528000991F2F813885820F931FFC0180819181A6
:10529000FC01848195810E94D5648B819C81880F5B
:1052A000991F2F813885820F931FFC018081918186
:1052B0000E94D5648B819C8101969C838B832B817A
:1052C0003C818D859E852817390754F28F819885FA
:1052D0000E94D56489819A8101969A838983898104
:1052E0009A819C01990F440B550B8D819E81FC0185
:1052F00084819581A681B781281739074A075B0702
:105300000CF499CF8D819E81FC01808591850E944E
:10531000D5648D819E81FC0182859385892B79F1ED
:105320001A8219821EC08D819E81FC01428553859F
:1053300029813A81C901880F991F880F991F880F09
:10534000991F821B930B880F991F840F951FFC01D7
:10535000848195810E94D56489819A8101969A837E
:10536000898329813A818D859E8528173907DCF24A
:105370008D819E81FC01828593850E94D5648D81FB
:105380009E81FC01808991890E94D5648D819E81D6
:10539000FC01868597850E94D56489859A85AB85B1
:1053A000BC85BC01CD010DDE89859A85AB85BC85A8
:1053B000BC01CD01BDDE01C000002E960FB6F894F1
:1053C000DEBF0FBECDBFDF91CF910895CF93DF93A6
:1053D00000D000D0CDB7DEB76B837C838D839E83F6
:1053E0002B813C8144E4429FC001439F900D1124D6
:1053F0008F5F994F9A83898389819A81FC01828981
:10540000938984309105A0F0069798F489819A8158
:1054100025E030E0FC01338B228B29813A818FEF2C
:105420009FEFDC01F901828F938FA48FB58F01C0AC
:105430000000000026960FB6F894DEBF0FBECDBF69
:10544000DF91CF9108950F931F93CF93DF93CDB743
:10545000DEB767970FB6F894DEBF0FBECDBF9F874C
:105460008E87798B688B5B8B4A8B0C8B1D8B2E8B7D
:105470003F8B1D828A899B89998788872C893D89E2
:1054800044E4429FC001439F900D11248F5F994FC8
:105490009F838E832E813F818C899D89AE89BF89B0
:1054A000F90180839183A283B383288939898C8908
:1054B0009D89AE89BF89A901BC01CD0191DE2885F6
:1054C00039858E819F81049644E050E0B9010E94A5
:1054D0006265888599850496998788878E819F81E2
:1054E000FC0184819581A681B78164E070E00E940F
:1054F0001F649C018E819F81DC0119963C932E9341
:1055000018978E819F81FC0180859185892B19F4E4
:1055100081E08D83D7C01C821B8221C08E819F8138
:10552000DC0118962D913C918B819C81880F991FED
:10553000880F991FA901480F591F9E01285F3F4FEF
:10554000688979898E859F8562DB8D838D8188232B
:1055500009F0B3C08B819C8101969C838B838B81E6
:105560009C819C01990F440B550B8E819F81FC01FE
:1055700084819581A681B781281739074A075B077F
:105580006CF2888999896EE070E00E941F649C012A
:105590008E819F81DC011B963C932E931A971A8271
:1055A00019821C821B8248C088859985FC018081F4
:1055B0009181A281B3818A879B87AC87BD878885CB
:1055C00099850496998788872A853B854C855D85D2
:1055D0008E819F81DC011A96ED91FC916B817C811B
:1055E000CB01880F991F880F991F880F991F861B61
:1055F000970B880F991F8E0F9F1FBA01A90177DCA7
:105600008D838D81882309F05AC08A859B85AC855E
:10561000BD8521E0892B8A2B8B2B09F420E0822F7A
:1056200090E029813A81820F931F9A8389838B812D
:105630009C8101969C838B832B813C8188899989ED
:10564000281739070CF4B0CF8E819F81FC01158695
:10565000148689819A81880F991F880F991F880F56
:10566000991F0E9439649C018E819F81DC015196B3
:105670003C932E9350978E819F81FC018089918964
:10568000892B19F481E08D831DC089819A81880F4F
:10569000991F0E9439649C018E819F81DC011F96B5
:1056A0003C932E931E978E819F81FC018685978562
:1056B000892B39F481E08D8305C0000003C0000010
:1056C00001C000008D81882351F0288939898C8997
:1056D0009D89AE89BF89A901BC01CD0181DD8D8184
:1056E00067960FB6F894DEBF0FBECDBFDF91CF91A6
:1056F0001F910F910895CF93DF93CDB7DEB7AD978C
:105700000FB6F894DEBF0FBECDBF9FA38EA379A7BF
:1057100068A72AA73BA74CA75DA7198288A599A5CA
:105720009B838A832AA53BA544E4429FC001439FF3
:10573000900D112442968F5F994F9F838E838A81AB
:105740009B81FC0180819181A281B3818E879F879B
:10575000A88BB98B8A819B8104969B838A838E85D3
:105760009F85A889B9899C018E819F81FC01338323
:1057700022838E819F8104962A813B8144E050E000
:10578000B9010E9462658A819B8104969B838A830A
:105790008E819F8108962A813B8144E050E0B901C7
:1057A0000E9462658A819B8104969B838A838E8195
:1057B0009F810C962A813B8144E050E0B9010E9410
:1057C00062658A819B8104969B838A838E819F81F7
:1057D0004C962A813B8144E050E0B9010E94626509
:1057E0008A819B8104969B838A838E819F81FC01A1
:1057F000848D958DA68DB78D9987888788859985A5
:10580000181619060CF087C08E819F814C969B87D5
:105810008A8788859985880F991F880F991F0E940C
:1058200039649C018A859B85FC01358324838A85A4
:105830009B85FC0184819581892B19F481E0898302
:10584000EAC01D821C823DC08A859B85FC012481A3
:1058500035818C819D81880F991F880F991F820F38
:10586000931F9D878C878A819B8120E1FC01DE014B
:10587000569601900D922A95E1F78A819B81409678
:105880009B838A834C855D859E012A5E3F4F8EA156
:105890009FA1B901C8D88A859B85FC0126813781E3
:1058A0008C859D85FC0182819381280F391F8A8513
:1058B0009B85FC01378326838C819D8101969D8386
:1058C0008C838C819D819C01990F440B550B8A859B
:1058D0009B85FC0180819181A281B38128173907C2
:1058E0004A075B070CF4B0CF8A859B85FC01868153
:1058F00097810E9439649C018E819F81FC0135A3B0
:1059000024A38E819F81FC0184A195A1892B19F488
:1059100081E0898380C08A819B81FC0180819181A3
:10592000A281B3818A8B9B8BAC8BBD8B8A819B813F
:1059300004969B838A838A899B89AC89BD89892B3C
:105940008A2B8B2B41F08A899B89AC89BD89029770
:10595000A105B10519F481E090E002C080E090E07B
:105960002E813F81F901918B808B8A899B89AC893B
:10597000BD890197A105B10541F08A899B89AC8950
:10598000BD890297A105B10519F481E090E002C03C
:1059900080E090E02E813F81F901938B828B8E8194
:1059A0009F8144962A813B8144E050E0B9010E94E6
:1059B00062658A819B8104969B838A838E819F8105
:1059C000FC0184859585A685B785BB23ECF48E8183
:1059D0009F81FC0184859585A685B785B095A095A6
:1059E000909581959F4FAF4FBF4F2E813F81F90119
:1059F00080A791A7A2A7B3A78E819F81FC011486DF
:105A000015861686178607C08E819F81FC0110A619
:105A100011A612A613A68981882339F08AA59BA511
:105A2000ACA5BDA5BC01CD01CCDA8981AD960FB680
:105A3000F894DEBF0FBECDBFDF91CF910895CF9315
:105A4000DF93CDB7DEB72C970FB6F894DEBF0FBE4D
:105A5000CDBF6F83788789879A875C874B872F8133
:105A6000388544E4429FC001439F900D11248F5F0D
:105A7000994F9C838B83109200068B819C81FC0143
:105A800015A614A61A82198243C08B819C81FC0141
:105A90004285538529813A81C901880F991F880F52
:105AA000991F880F991F821B930B880F991F840FD2
:105AB000951F9E838D838D819E81FC0182819381C0
:105AC0001816190604F58D819E81FC01248135810B
:105AD0008D819E81FC01378326838D819E81FC010F
